:4000000000800020110000001D0700001D07000008B5044B1A6803F53F5302331A6000F085FB00BFFA46004010B5054C237833B9044B13B10448AFF300800123237010BDAF
:400040005881FF1F000000001C460000084B10B51BB108490848AFF300800848036803B910BD074B002BFBD0BDE81040184700BF000000005C81FF1F1C460000C880FF1F1E
:400080000000000008B562B601F0FAFC00F056FD00F05EFE00F0BCFD00F022FE01F090FD01F012FE01F046FA01F058FA01F0EAFA01F0DAFA00F010FF01F01CFC002001F096
:4000C000FDFC002001F08AFF002001F0EBFC002001F090FF204B1B6813B1012B22D0F9E700F080F81D4B186800F0A8F81C4B1B68002B07DC42F2107000F042FC194B186887
:4001000000F0ECF8154B1B68312B03DD012001F071FF02E0002001F06DFF104B186800F0A7F8D7E700F05EF84FF4546000F098FD0A4B186800F082F8094B1B68002B03DCE1
:40014000084B186800F0CAF8012001F053FF034B186800F08DF8BDE7CC80FF1FD881FF1F7481FF1FF081FF1F38B5054601F0A6FA01F0F4F9002001F0F9F901F00FFA04463E
:4001800000F024F82946201A00F002F838BD00BF00020D4B53F8213003F54852904203DCA3F54853984203DA074B43F8210002E0054B43F82100044B53F82130C3F3C0101C
:4001C00000EB2320704700BF8481FF1F08B5022001F074FA01F0C2F9002001F0C7F901F0DDF908BD38B50020FFF7BEFF04460120FFF7BAFF0546204603F0E6FF04462846D6
:4002000003F0E2FF0146204604F0E6F8084904F02FF804F07DF900F0ABFD064B83FB0023C017C0EB63102030034B186038BD00BF00401C461F85EB51D881FF1F322807DD15
:40024000054B1B68012B06DC0122044B1A6070470222024B1A6070477881FF1FF081FF1F10B5044601F0A4FBE0B201F057FB10BD08B500F10903082B09D8164BB3221A60F3
:400280001868FFF7EDFF0522134B1A6008BD00F11203082B09D80F4BCC221A601868FFF7DFFF06220C4B1A6008BD10F1120F09DA084BE6221A601868FFF7D2FF0722064B8F
:4002C0001A6008BD0020FFF7CBFF0022024B1A6008BD00BFE081FF1FCC81FF1F08B502281BD0032834D0012835D101F0DBFB012001F074FE45F6D81000F042FB002001F0AC
:40030000D1FB0120144B186001F0D8FB002001F0C9FB002001F062FE08BD104B1B68012B12D1012001F05AFE012001F0BBFB43F6982000F025FB002001F0B4FB002001F039
:400340004DFE0122044B1A60012001F0B7FB08BD012001F0B3FB08BD7481FF1FCC80FF1FFEE700BFF0B40022174611E050F82760F3B226F0FF0608E001EB420511F81240FE
:400380006D78A5550132013BDBB2002BF4D101371F2FEBD9F0BC70471A4B1B78DBB203F00701194A11701B09013213708022174B1A70282211331A70402210331A7042214F
:4003C00003F6E303197002216233197008210833197001230E490B7010200531087024202831087040F201108231088009480231086014310A70084A13704422074B1A703E
:40040000704700BFCF0100496E5800401C510040935A0040060108015B5B00407658004008B50A46002104F0F0F808BD08B504F0E1F808BD70B50024374B1C80502202330D
:400440001A70022602331E80182502331D708F2202331A8002331D7043F2257202331A8002331D70632202331A801B2202331A7004222A492A48FFF7D9FF2A4B1E70082203
:400480004FF040231A70032203F500731A70264B1B78DBB2254A1370254B1D8042F25122023B1A8019250CE0224B1B7803F0010343EA440404F003044FF4F07001F0A8FD1E
:4004C000013D0DB1032CEFD115B90320FFF748FF194B4FF480721A8007221A70002217490A704820023108701A700222033B1A7004220A331A70124A137843F01F031370CC
:40050000013A137843F001031370013A137843F08003137070BD00BF804000402C030048004100400043004008010049A14600402242004025420040044000400640004007
:40054000A2430040012807D8044B53F820201844017A13780B431370704700BF20460000012808D8044B53F820201844017A137823EA01031370704720460000012816D858
:4005800010B44000C0B20A4B03EB8002D1681A18147F0A7822430A700130C0B203EB8002D2681844017F13780B43137010BC704720460000012818D810B44000C0B20B4B4E
:4005C00003EB8002D1681A18147F0A7822EA04020A700130C0B203EB8002D2681844017F137823EA0103137010BC70472046000010B572B66122344B1A70FFF71BFF334A48
:40060000137843F00403137000240BE0304863001A19510001440A46898C106AFFF700FF0134E4B2082CF1D92A494FF09040FFF799FE0A22284B1A7004212848FFF7F0FE71
:4006400004212748FFF7ECFE04212648FFF7E8FE04212548FFF7E4FE244A137843F0020313701032137843F002031370204C237843F040032370A2F58632513A137843F049
:400680001003137008221B491B48FFF7CFFE08221A491B48FFF7CAFE08221A491A48FFF7C5FE082219491A48FFF7C0FE194A137843F008031370FFF76FFE0E2221461648F1
:4006C000FFF7B4FE10BD00BF00480040E84600402046000080000048835800400076004008760040107600401876004003500140A04300400C03004802510040140300487F
:40070000125100401C03004822510040240300483251004022430040B043004008B503F03DFF03680C2B00D1FEE7FEE708B5104E104D16E029686B68AC68002204E051F894
:40074000040B43F8040B0432A242F8D1E868002203E0002143F8041B04328242F9D11035013E002EE6D103F01FFFFFF78BFCFEE701000000D864000008B5114A114B1A60A2
:40078000114A136843F40073136000230AE0032B03D80E4A52F8231000E00D490D4A42F8231001332F2BF2D90B4B1A780B4B1A70084A0B4B1A60FFF71BFF00F013F808BD4E
:4007C0000004FA050CED00E014ED00E0000000001D0700000080FF1FBC760040C080FF1F08ED00E00B4A7F2313708021517007E0DA0002F1804202F5F042013BDBB213700E
:40080000002BF5D1DB0003F1804303F5F04300221A707047D480FF1F172815D831B103010A495A5C42F020025A5405E0030107495A5C02F0DF025A540001044A835C43F047
:400840000103835400207047012070471070004017280BD80001064A835C03F0F103490001F00E011943815400207047012070471070004041F6FF73994201D14FF4005122
:4008800041F6FF739A4201D14FF40052172808D8C00000F1804000F5EC408180C280002070470120704700BF172805D8034B03EB0010417200207047012070471070004060
:4008C00017281BD810B4C00000F1804404F5EC44D201D2B201F07F01114321709DF804201201D2B203F00F03134363709DF8083003F00F03A3700020E07001E0012070472B
:4009000010BC704710B501F08BFB0A4B5B78182B0BD9084A1478013B5370E30003F1804303F5F0431B78137000E0FF2401F07CFB204610BDD480FF1F10F0800F0CD111F470
:40094000704F0BD1C00000F1804000F5F04001808270C37000207047012070470120704710F0800F08D1C00000F1804000F5F0408180C280002070470120704701BE7047B3
:4009800010B5044605E0084B186801F041FBA4F50044B4F5004FF6D8034B586800FB04F001F036FB10BD00BFDC80FF1F08B5034B1B7A00FB03F001F02BFB08BDDC80FF1F97
:4009C00070B504460E46074B1D681F2802D90020FFF7D4FF04F01F04103455F8240045F8246070BD08ED00E038B504460D46072902D90020FFF7C2FF1F2C02D90020FFF71B
:400A0000BDFF04F01F0000F1604000F564406D01EDB2057038BD00BF10B5012000F0D6FF2F4B1B68022B05D101222D4B1A6000222C4B1A602A4A13680133136000F0B8F87E
:400A4000294B186029490868C0EB00108200186800EB8000C3001344254AA2FB033252090023C1E90223D1E902230A60D1E902234FF080700021801A61EB030102F0B4FFD1
:400A800002460B4614A1D1E9000103F00DF903F091FA184C206021684FF07E5003F09CFC154B18602068154903F0E2FB20602168134803F091FC03F051FD80B200F0D0F814
:400AC0000024104B1C60012000F018F9204600F015F910BDAFF300800000000060E376417881FF1FCC80FF1FE881FF1F9081FF1F1F85EB51D481FF1FDC81FF1F00506A4588
:400B00004054894C7C81FF1F014B1B685864704708ED00E04001C0B2014B1870704700BF01E400E00222014B1A60704700E100E00222014B1A60704780E100E008B5FFF761
:400B4000F7FF0448FFF7E0FF0720FFF7E3FFFFF7E9FF08BD190A0000024A137843F08003137070477A640040014B1870704700BF8C640040014B1878704700BF6C640040D8
:400B800008B50146014801F053FA08BD2A640040024B186820F07F40704700BF4A64004008B50146014801F043FA08BD0A640040034B1B78034B186820F07F40704700BF35
:400BC0000A6400404A64004008B501E0FFF7E0FFFFF7D0FF10F0080FF8D108BD08B56FF07F40FFF7CDFF6FF07F40FFF7D9FF01F017FA064A137843F01003137001F014FA4E
:400C0000FFF7E2FF0120FFF7AFFF08BD9C64004008B5054B1B7823B9FFF7E0FF0122024B1A70FFF799FF08BDA081FF1F084A137843F0010313701032137843F00103137018
:400C400002F64D32137843F001031370704700BFA3430040014B1870704700BF034F0040014B1880704700BF044F0040014B1880704700BF064F004008B5164A137803F0C9
:400C8000010313700232137803F0FC031370124B1A7802F0CF021A701A7842F030021A701A7802F0F0021A701A7842F00F021A700A4A137843F00103137040F29360FFF7AA
:400CC000CFFF40F29360FFF7D1FF0020FFF7C2FF08BD00BF004F00400B4F0040014F004008B5054B1B7823B9FFF7C6FF0122024B1A70FFF79BFF08BDA181FF1F014B18708D
:400D0000704700BF7B64004008B50122024B1A60002000F05BFE08BDCC80FF1F014B1B689864704708ED00E04001C0B2014B1870704700BF02E400E00422014B1A60704722
:400D400000E100E00422014B1A60704780E100E008B5FFF7F7FF0448FFF7E0FF0720FFF7E3FFFFF7E9FF08BD090D000000000000F8B502F0F9FD01F065F903F01BF902F06F
:400D800015FE06460F461EA3D3E9002302F062FE1DA3D3E9002302F0ABFC04460D4600221F4B3046394601F0CDF919A3D3E9002302F050FE02460B462046294602F098FCB1
:400DC00003F0F8F802F0F2FD02460B460020154902F06AFF10A3D3E9002302F087FC0022114B02F037FE0022104B02F081FC03F0E1F803F08DFB00B2F8BD00BFAFF3008096
:400E0000441E8799EB2836BFF5824F73F222733F1CAD60FD4B49C33E6666666666127140000008400000F03F000059400000E03F054A137843F0080313701032137843F0E3
:400E400008031370704700BFA8430040054B1A7802F0FD021A701A7800F0020010431870704700BF2C580040014B1870704700BF835B0040064B1B78C3F3810303F19243FE
:400E8000063393F83831DBB2024A1370704700BF2C5800400B46004008B5064B1A7802F0F3021A701A7800F00C0010431870FFF7E1FF08BD2C58004010B50024054B1C7040
:400EC00001331C700420FFF7E7FF2046FFF7BEFF10BD00BF2C58004008B5074B1B7823B9FFF7EAFF0122044B1A70FFF7A1FF6420FFF7BAFF08BD00BFA281FF1F38B59DF860
:400F00001040651EEDB2032D51D8013809282ED8DFE800F0052D2D052D2D0F192D230F2B03D92548007840B222E02448007840B21EE00F2B03D92248007840B218E021487B
:400F4000007840B214E00F2B03D91F48007840B20EE01E48007840B20AE00F2B03D91C48007840B204E01B48007840B200E0002001EB401101FB02F2D20B91B20D2B0BD887
:400F8000C3F10E0192B20A4191B2621E124800EB82020133937005E0631E0F4A02EB83030F229A70013C0C4B23F8241038BD0020FFF7E4FC38BD00BF180100491C01004965
:400FC000190100491D0100491A0100491E0100491B0100491F010049A481FF1FF8B5074601F01EF806460D4D2B7843F003032B700B4C237843F0030323700A4B1F70032067
:40100000FFF7D4FC2B7803F0FC032B70237803F0FC032370304601F007F8F8BDF8460040F9460040925800402DE9F04104460022BE4B1A7401285AD17822BD4B1A70002569
:4010400002331D704FF00A08013383F800807F23B84A13700132157001321370B64B1D7001331D7001331D7001260A331E70502203F527631A70132201331A702B220133A5
:401080001A7001331D70442003331870482201331A70022201331A7002331E70112701331F70192201331A70972201331A70FFF795FF5822A14B1A7001331D7005331E708A
:4010C00001331E7001331D70013383F800804FF47A329B4B1A603146384600F01BFB31465F2000F09BFB97491D20FFF769FC022C5DD138228E4B1A70042202331A700722D9
:4011000001331A70002501331D7001331D703F2201331A7002331D7001331D7001331D7001260A331E70502203F527631A70272201331A702C2201331A7001331D7055222C
:4011400003331A705A2201331A704FF00508013383F8008002331E70112701331F70192201331A70972201331A704420FFF736FF5822724B1A7001331D70053383F8008088
:4011800001331E7001331D700A2201331A704FF4FA426B4B1A603146384600F0BBFA31466F2000F03BFB68491D20FFF709FC032C5DD138225E4B1A70042202331A7007226C
:4011C00001331A70002501331D7001331D703F2201331A7002331D7001331D7001331D7001260A331E70502203F527631A70272201331A702C2201331A7001331D7055226C
:4012000003331A705A2201331A704FF00508013383F8008002331E70112701331F70192201331A70972201331A704420FFF7D6FE5822424B1A7001331D70053383F8008058
:4012400001331E7001331D700A2201331A704FF4FA423B4B1A603146384600F05BFA31466F2000F0DBFA39491D20FFF7A9FB042C5AD138222E4B1A70042202331A7007225E
:4012800001331A70002401331C7001331C703F2201331A7002331C7001331C7001331C7001250A331D70502203F527631A70272201331A702C2201331A7001331C705522B4
:4012C00003331A705A2201331A70052701331F7002331D70112601331E70192201331A70972201331A704420FFF778FE5822134B1A7001331C7005331F7001331D7001332C
:401300001C700A2201331A704FF4FA420C4B1A602946304600F0FEF929466F2000F07EFA0B491D20FFF74CFBBDE8F081A481FF1F004E0040044E0040084E004094580040AC
:40134000F481FF1F091600000D16000011160000151600002DE9F04182B0384E4FF0010886F80080364F00247C74102000F0C0F9102000F041FA07211D20FFF735FB042580
:40138000304B1D7001331C7007331C702E4A137843F0180313702D4B1C7003F2F5231C7001331C700A22A3F209331A7001331C7002331C705B2205331A705E2201331A70E9
:4013C00004331C701423224A1370CDF800804FF4004249F25B110520FFF790FD0223009310234FF4004249F2DA012846FFF786FD0323009310234FF4004249F2DA01284689
:40140000FFF77CFD009510234FF4004249F2DA012846FFF773FD3378013B07EB83039A780C4B1A703378013B37F823200A4B1A803078FFF7F9FD02B0BDE8F081EC80FF1F86
:40144000A481FF1F96580040075B004093580040014E00400E4E00400C4E004070B500F0DFFD06462A4B1B782A4B1A7842F001021A701A7842F010021A7010331A7842F0F7
:4014800001021A701A7842F010021A70224D2B7843F002032B70214C237843F0020323701F4A137843F0030313700320FFF77EFA2B7803F0FD032B70237803F0FD032370F4
:4014C000184A137843F0060313707A22164B1A70164A137843F0010313701032137843F0010313700F3A137843F0010313701032137843F0010313704FF000530C4A13601D
:40150000A2F5C0721360304600F08EFD70BD00BFEC80FF1FAA430040F8460040F9460040915800407758004082580040A143004080E200E008B5084B9B7C4BB9064BDB7C53
:4015400013F0FF0F01D1FFF705FF0122024B9A74FFF784FF08BD00BFA481FF1F024A137843F0010313707047004E0040094B1B7C13F0FF0F03D0074B5B7CDBB203E0064B41
:401580001B7803F00103012B01D00028EED01846704700BFA481FF1F014E0040154B1B7803F00303012B07D8134B1888023B1B889BB243EA004013E0022B0AD10E4B188895
:4015C000023B1B7843EA00430C4A107843EA002006E00B4B188883B2074A108843EA0040084B1B7C13F0FF0F02D00022054B5A74704700BF144E0040124E0040114E0040B5
:40160000104E0040A481FF1F704700BF704700BF704700BF704700BF084A137843F060031370A2F5A652133A137843F0020313701032137843F0020313707047775800408B
:40164000054B1A7802F0FC021A701A7800F0030010431870704700BF5A58004008B50120FFF7EEFF08BD00BF08B5054B1B7823B90122034B1A70FFF7F1FFFFF7CDFF08BD1D
:40168000BC81FF1F10B5002407E02046FEF768FF2046FEF78FFF0134E4B2012CF5D9FF22014B1A7010BD00BFED80FF1F10B50446FEF756FF2046FEF77DFF10BD10B5044674
:4016C000074B1878FF2801D0FFF7F0FF2046FEF739FF2046FEF752FF014B1C7010BD00BFED80FF1F014B188880B2704780400040034B1A7800F0F80010431870704700BF0F
:4017000082400040024B187800F00700704700BF8240004070B505460E46FFF7F3FF0446FFF7E0FFA84256D02B4B1B7803F0010294B900B185B938B9284B1D80284A137847
:4017400003F0BF03137070BD254A137843F040031370224B1D8070BD22B3002321490B7001240F310C7004310B700C390B7803F07F030B701A4B1B7813F0080F00D08DB98C
:40178000194B18800721013B1970164B1B7813F0010FFAD110490B7803F0FE030B700021104B19700C4B1B7813F0010F0DD00E4B1D800EB1032200E001220A4B1A70094B34
:4017C0001B7813F0010FFAD170BD044B1D8002490B7813430B7070BDA243004080400040824000400140004002400040014B188880B2704700410040034B1A7800F0F8004B
:4018000010431870704700BF02410040024B187800F00700704700BF0241004070B505460E46FFF7F3FF0446FFF7E0FFA84256D02B4B1B7803F0010294B900B185B938B900
:40184000284B1D80284A137803F0BF03137070BD254A137843F040031370224B1D8070BD22B3002321490B70012413310C7004390B7008390B7803F07F030B701A4B1B78A6
:4018800013F0080F00D08DB9194B18800721013B1970164B1B7813F0010FFAD110490B7803F0FE030B700021104B19700C4B1B7813F0010F0DD00E4B1D800EB1032200E059
:4018C00001220A4B1A70094B1B7813F0010FFAD170BD044B1D8002490B7813430B7070BDA143004000410040024100400140004002400040024A137843F08003137070474A
:4019000073640040014B1870704700BF03640040014B1870704700BF43640040014B1870704700BF23640040014B1870704700BF83640040014B1878704700BF6364004093
:40194000014B1878704700BF5364004008B501E0FFF7F6FFFFF7EEFF10F0100FF8D108BD10B5114A137803F0C00343F0090313700E4C237843F001032370FF20FFF7C2FF4D
:40198000FF20FFF7C5FF0020FFF7C8FF0020FFF7CBFF00F045FB237843F01003237000F043FBFFF7D3FF10BD736400409364004008B5054B1B7823B9FFF7D2FF0122024B29
:4019C0001A70FFF797FF08BDBD81FF1F014B1870704700BF72640040054A137843F0040313701032137843F004031370704700BFA8430040054B1A7802F0FD021A701A789F
:401A000000F0020010431870704700BF28580040014B1870704700BF825B0040064B1B78C3F3810303F19243063393F82831DBB2024A1370704700BF285800400A46004016
:401A400008B5064B1A7802F0F3021A701A7800F00C0010431870FFF7E1FF08BD2858004008B50023054A1370013213700420FFF7E7FF0220FFF7BEFF08BD00BF2858004010
:401A800008B5074B1B7823B9FFF7EAFF0122044B1A70FFF7A1FFFA20FFF7BAFF08BD00BFBE81FF1F044A137803F0FE0300F0010018431070704700BF20510040044A1378F4
:401AC00003F07F03C001C0B218431070704700BF0051004010B500F041F900F099F9064C01212078FEF798FE01216078FEF794FE002000F04FF910BDBF81FF1F70B50546E0
:401B00000E464FF48043020C0121084600F0EAF8094C2070A078012302463146FEF70CFF4FF4B742A9B2A078FEF71AFFA1782078FEF7BAFE70BD00BFBF81FF1F70B5054646
:401B40000E464FF48043020C0121084600F0E8F8094C6070E078012302463146FEF7ECFE4FF4B742A9B2E078FEF7FAFEE1786078FEF79AFE70BD00BFBF81FF1F10B500F0E5
:401B800031F9022000F0F8F8002000F01BF900F061F9FEF7B7FE084CA070FEF7B3FEE070064C40F6A5612046FFF7A8FF642104F6A860FFF7C3FF10BDBF81FF1F78460000CE
:401BC00008B5054B1B7923B9FFF7D8FF0122024B1A71FFF77FFF08BDBF81FF1F10B500F07BF900F0D3F9064C01212078FEF714FE01216078FEF710FE002000F089F910BDB5
:401C0000C481FF1F70B505460E464FF48043020C0121084600F024F9094C2070A078012302463146FEF788FE45F68132A9B2A078FEF796FEA1782078FEF736FE70BD00BFE1
:401C4000C481FF1F70B505460E464FF48043020C0121084600F022F9094C6070E078012302463146FEF768FE45F68132A9B2E078FEF776FEE1786078FEF716FE70BD00BFC3
:401C8000C481FF1F10B500F06BF9022000F032F9042000F055F900F09BF9FEF733FE084CA070FEF72FFEE070064C40F6A5612046FFF7A8FF642104F6A860FFF7C3FF10BDEC
:401CC000C481FF1F8455000008B5054B1B7923B9FFF7D8FF0122024B1A71FFF77FFF08BDC481FF1FF0B583B016461F460B4C022525700023019300930A4601462846FEF7D7
:401D0000DFFD3A4631462078FEF7B4FD29462078FEF79EFD207803B0F0BD00BFEE80FF1FF0B583B016461F460B4C032525700023019300930A4601462846FEF7C1FD3A4689
:401D400031462078FEF796FD02212078FEF780FD207803B0F0BD00BFEF80FF1F054A137843F0010313701032137843F001031370704700BFA8430040054B1A7802F0FD02CC
:401D80001A701A7800F0020010431870704700BF20580040014B1870704700BF805B0040064B1B78C3F3810303F19243063393F82031DBB2024A1370704700BF2058004021
:401DC0000846004008B5064B1A7802F0F3021A701A7800F00C0010431870FFF7E1FF08BD2058004008B50020074B187001331870064A137843F008031370FFF7E3FF02207F
:401E0000FFF7BAFF08BD00BF20580040875A0040084A137843F060031370A2F5A652133A137843F0040313701032137843F004031370704777580040054B1A7802F0FC025A
:401E40001A701A7800F0030010431870704700BF5C58004008B50220FFF7EEFF08BD00BFF0B583B016461F460B4D00242C700194009423460A4601462046FEF721FD3A46F5
:401E800031462878FEF7F6FC02212878FEF7E0FC287803B0F0BD00BFF080FF1FF0B583B016461F460B4C012525700023019300930A4601462846FEF703FD3A4631462078C5
:401EC000FEF7D8FC02212078FEF7C2FC207803B0F0BD00BFF180FF1F054A137843F0020313701032137843F002031370704700BFA8430040054B1A7802F0FD021A701A78B8
:401F000000F0020010431870704700BF24580040014B1870704700BF815B0040064B1B78C3F3810303F19243063393F83031DBB2024A1370704700BF245800400946004013
:401F400008B5064B1A7802F0F3021A701A7800F00C0010431870FFF7E1FF08BD2458004008B50020074B187001331870064A137843F008031370FFF7E3FF0220FFF7BAFFD8
:401F800008BD00BF245800408F5A0040084A137843F060031370A2F5A652133A137843F0080313701032137843F008031370704777580040054B1A7802F0FC021A701A7858
:401FC00000F0030010431870704700BF5E58004008B50220FFF7EEFF08BD00BF044A137803F0FB03800000F0040018431070704710510040044A137803F0BF03800100F0F1
:40200000400018431070704710510040000000000230800803D000BF01380046FCD17047EFF3108072B6704780F31088704700BFCBB20370C1F307234370C1F3074181709E
:40204000704700BF2DE9F0418AB004460D4600F013FA374B064693F900800F46B8F1FF3F0DD022462B462046294601F08DFF30B9002200232046294601F07CFF20B13046FB
:4020800039460AB0BDE8F0812A4B0890CDE90245CDE904450193B8F1000F19D1264F4FF060462046294600220023CDE9066701F039FF002834D002230093684601F000FA55
:4020C000A8B1089BC3B9DDE906010AB0BDE8F0811A4F00262046294600220023CDE9066701F020FF68B1022398450093E5D102F055FA22230360E4E702F050FA089B036095
:40210000E1E70123B8F1020F00930BD102F046FA212303600A4801F0D5F9CDE90601D0E701230093684601F0CBF90028F2D1EDE7F280FF1F90640000FFFFEFC70000F0FF2C
:40214000946400002DE9F04F8DB006460F4614461D4600F085FBDFF81093CDE9000199F90080B8F1FF3F46D022462B462046294601F00AFF834600283DD132463B463046B1
:40218000394601F001FF8246002874D1304639460022002301F0C6FE002833D0002200232046294601F0BEFE8346B8B1A94A012300200021CDF828A0CDE90467CDE9064560
:4021C000CDE9080103920293B8F1000F6CD0A24B0022104619460DB0BDE8F08F2046294601F068F938B1002200232046294601F0A3FE00286AD1DDE90023104619460DB0E3
:40220000BDE8F08FDDE9000101F054F9804600287DD0DDE900014FF0000A4FF0000B52465B4601F07FFE0028E5D03046394601F041F90028DFD02046294601F03BF9002843
:40224000D9D099F90030834804210022022BCDE90467CDE90645CDE908AB039002910A9204D002A801F02CF9002847D102F096F92223036042E0002200232046294601F03D
:4022800051FE0028B7D0744B724800220121B8F1020FCDF828B0CDE90467CDE90645CDE9082303900291A8D002A801F009F900287ED00A9B43B302F071F9DDE908230A99CD
:4022C0000160104619460DB0BDE8F08F614999F900300122CDF828B0CDE90467CDE9064503910292002B68D05C490020022BCDE9080166D102F052F9212303600A9B1BB1D1
:4023000002F04CF90A9B0360DDE9082375E73046394601F0CFF800283FF47BAF2046294601F0C8F800283FF474AFDDE900231046194601F029FE00286FD1464B99F900801A
:40234000039303230A90CDE90467CDE906450293B8F1000F3BD1DFF814B14FF0604A0022002330463946CDE908AB01F0E5FD00283FF477AF00223A4B2046294601F06AFB3E
:4023800004460D4601F0A4F802460B462046294601F0C8FD00283DD1324B4FF06042CDE9082399F90080B8F1020F7FF45AAF5DE702F0F4F8212303607BE700230024CDE9EA
:4023C000083402A801F07CF8002897D192E7DFF8A0B04FF0000A0022002330463946CDE908AB01F0A9FD0028DDD000221C4B2046294601F02FFB04460D4601F069F802465A
:402400000B462046294601F08DFD18B9134B0022CDE9082399F90080C5E70E4A99F900900123CDF82880CDE90467CDE9064503920293B9F1000FC0D0002200231046194671
:4024400001F032FCB9F1020FCDE908013FF452AFB7E700BF986400000000F03F0000F0FF0000E03FFFFFEFC7F280FF1FFFFFEF470000F07F000000002DE9F04FB1F5801F78
:4024800085B006460F460B465ADA024621F00044224300F0F7800029C0F279810022D64B01F0D8FA0B460F46D44906468B426FF0350249DCC3F3130505F5152404F6647413
:4024C00004F4801E8EF07F5181F440111B15A3F2FF3341EA05079C1830460022C84B394604EB1E5401F002F9AB1CC3F31303022B82468B464FF000022FDC002301F012FD11
:40250000002800F0C880002C00F04A81204601F03BFAA5A3D3E9002306460F4601F09AFAA3A3D3E9002304460D463046394601F091FA02460B462046294601F0D9F809E02F
:40254000AE4900228B42B5DD32463B463046394601F0CEF805B0BDE8F08F4FF0804301F0C7F802460B465046594601F09DFB064620460F4601F008FA3246CDE900013B46B2
:4025800030463946CDE9026701F064FA02460B468046894601F05EFA87A3D3E9002306460F4601F057FA86A3D3E9002301F0A0F832463B4601F04EFA83A3D3E9002301F09C
:4025C00097F832463B4601F045FA81A3D3E9002301F08EF842464B4601F03CFA7EA3D3E90023804689463046394601F033FA7CA3D3E9002301F07CF832463B4601F02AFA50
:4026000079A3D3E9002301F073F832463B4601F021FA0B4602464946404601F069F8A5F5C223C5F5D725A3F27A4351351D43002D8046894656DD0022724B5046594601F0D7
:4026400009FA52465B4601F005FA06460F46002C68D132463B464046494601F049F8DDE9022301F0F7F902460B463046394601F03DF802460B465046594601F037F805B0C5
:40268000BDE8F08F0022002300205F4901F00CFB05B0BDE8F08F56A3D3E900235046594601F0D8F902460B460020564901F01EF8524606460F465B465046594601F0CAF927
:4026C00002460B463046394601F0C4F906460F46002C40F09B8002460B465046594601F005F837E7002C00F0A5802FA3D3E90023DDE9000101F0AEF942464B4604460D46A5
:402700005046594600F0F2FFDDE9022301F0A2F927A3D3E9002306460F46DDE9000101F099F921E020A3D3E90023DDE9000101F091F932463B4604460D464046494600F0F8
:40274000D7FFDDE9022301F085F919A3D3E9002380468946DDE9000101F07CF902460B464046494600F0C4FF02460B463046394600F0BCFF52465B4600F0B8FF02460B46B9
:402780002046294600F0B2FF05B0BDE8F08F02460B4600F0ABFF0022002301F085FAD9E600200021D6E600BF0000E0FE422EE63F763C7935EF39EA3D44523EDF12F1C23F8E
:4027C000DE03CB966446C73F599322942449D23F935555555555E53F9FC678D0099AC33FAF788E1DC571CC3F04FA97999999D93F555555555555D53F00005043FFFFEF7F79
:402800000000F03F0000E03F000050C3204601F0BBF80FA3D3E900238046894601F01AF90DA3D3E9002304460D464046494601F011F999E702460B465046594600F056FF34
:40284000DDE9022301F006F913E700BFAFF300800000E0FE422EE63F763C7935EF39EA3D2DE9F04F23F0004858EA020993B03CD0714C21F00046A64283460D460CDD06F13C
:40288000404606F5801656EA0B0038D183466B49584613B0BDE8F08F9A4696462BD0A045EDDC654CA04578D0002D0F468146CDE9002376DB0024BEF1000F27D15E4B984595
:4028C00000F08B805D4B984552D0BAF1804F00F0C9835B4B9A4519D1002D17DB4846394613B0BDE8F04F00F01DBDCB465846534913B0BDE8F08F0028C1D1B045D1DD51484C
:4029000013B0BDE8F04F00F0DDBD00244846394600F0CCFDBBF1000F1CD0ED0F013D54EA050370D0484B984540F3948003F10473984540F30D84454B9E4270DDBAF1000FDB
:4029400070DD3BA3D3E900231046194601F082F883469DE726B1394B25F040429A42DCD1BAF1000FC0F2B783002D08DB83468FE7BAF1000FC0F25E84CB46394688E706F12C
:40298000404606F5801656EA040300F08384012CECD101F1004183467AE7BEF1000F83D06DE72B4B98452CDCA3F15473984581DD4FEA2853A3F2FF33142B40F35384C3F1AD
:4029C00034032EFA03F202FA03F39E457FF472AF02F00102C2F102046DE706F1404303F5801353EA0B0300F03A83184B9E4240F36783BAF1000F15DBDDE900349B462146CF
:402A000046E7022457E74A4648463B46394600F06DFE02460B4601F047F9834638E7BAF1000F8EDB4FF0000B594631E7AFF300809C7500883CE4377E0000F07F0000F03F88
:402A40000000E03F946400000000E041FFFFEF3FFFFF3F43B6F5801F4FF0000205DAD04B00F0F8FF0E466FF03402DFF844E33315C6F31306A3F2FF3346F07F57764503EB89
:402A8000020A47F4401740F3C983C64B00229E4240F304840023CDE90823CDE90C23C24B0022CDE906230AF1010AA7F5801700263946DDE90623CDE90A0100F017FEDDE9DB
:402AC000062380468946DDE90A0100F011FE02460B460020B44901F0E7F80A4601461346CDE90E1202464946404600F0B3FF8C4683467B1043F0005303F500239919002064
:402B0000CDE904BC06460F464FF0000B6146584632463B46CDE910BCCDE9020100F09AFF02460B464046494600F0E0FDDDE90623804689463046394600F0D8FD02460B46E0
:402B4000DDE90A0100F0D2FDDDE9022300F082FF02460B464046494600F0C8FDDDE90E2300F078FFDDE90478CDE906013A4643463846414600F06EFF77A3D3E900230646F9
:402B80000F4600F067FF76A3D3E9002300F0B0FD32463B4600F05EFF73A3D3E9002300F0A7FD32463B4600F055FF71A3D3E9002300F09EFD32463B4600F04CFF6EA3D3E94A
:402BC000002300F095FD32463B4600F043FF6CA3D3E9002300F08CFD3246804689463B463046394600F036FF02460B464046494600F030FFDDE9022306460F46DDE90401D2
:402C000000F076FDDDE9062300F024FF32463B4600F06EFDDDE902678046894632463B463046394600F016FF0022604BCDE90A0100F05EFD42464B4600F05AFDDDE910BC59
:402C40000F46DDE902015A463B46CDE90EBC5E4600F000FF0022CDE90201544B3046394600F044FDDDE90A2300F040FD02460B464046494600F03AFDDDE9042300F0EAFEA8
:402C8000324680468946DDE906013B4600F0E2FE02460B464046494600F02AFD8046894602460B46DDE9020100F022FDDDE90EBC35A3D3E900235846CDE906BC5E460F46C8
:402CC00000F0C8FEDDE90223CDE904013046394600F00CFD02460B464046494600F006FD2BA3D3E9002300F0B5FE2BA3D3E90023804689463046394600F0ACFE02460B462F
:402D00004046494600F0F4FCDDE90C2300F0F0FC80465046894600F037FE06460F46DDE9040142464B4600F0E3FCDDE9082300F0DFFC32463B4600F0DBFCDDE906BC3246AD
:402D400058463B46DA468B4600F0D0FCDDE9082330E000BFAFF30080EF4E454A287ECA3F65DBC9934A86CD3F01411DA96074D13F4D268F515555D53FFFAB6FDBB66DDB3F84
:402D8000033333333333E33F000000E009C7EE3FFD033ADC09C7EE3FF5015B14E02F3EBE0000404379B60B000000F03F000008408E98030000F09AFCDDE9042300F096FC3D
:402DC00002460B464046494600F090FC80468946DDE90012013C54EA050314BFD64CD74C0023CDE904340B461446CDE9023400230293DDE9024508462B461146224600F0C6
:402E000075FC52465B4600F025FEDDE9002306460F464046494600F01DFE02460B463046394600F065FC06460F4622462B4650465946CDE9006700F00DFE0B460246804626
:402E400089463046394600F053FCBD4B064699420D460C4640F30E8101F13F4303F5E003034340F0F081A0A3D3E90023DDE9000100F03EFC424682468B464B4630462946D9
:402E800000F034FC02460B465046594601F072F8002840F0D8812F463B154FF48012A3F2FE3342FA03F32344C3F30A52A54EA2F2FF321641C3F3130B0020C2F1140523EA31
:402EC00006014BF4801B02460B46002C4BFA05FB40464946B8BFCBF1000B00F007FC02460B4680468946DDE9000100F001FC4FEA0B5A00247EA3D3E9002320460D4600F054
:402F0000A9FD424606460F464B462046294600F0EDFB02460B46DDE9000100F0E7FB76A3D3E9002300F096FD75A3D3E90023804689462046294600F08DFD02460B464046DD
:402F4000494600F0D5FB8046894602460B463046394600F0CDFB32463B4604460D4600F0C5FB02460B464046494600F0BFFB2246804689462B462046294600F06BFD62A3E9
:402F8000D3E9002306460F4600F064FD60A3D3E9002300F0ABFB32463B4600F05BFD5EA3D3E9002300F0A4FB32463B4600F052FD5BA3D3E9002300F099FB32463B4600F096
:402FC00049FD59A3D3E9002300F092FB32463B4600F040FD02460B462046294600F086FB06460F4602460B462046294600F032FD0022CDE900014FF080433046394600F040
:4030000075FB02460B46DDE9000100F04DFE424606460F464B462046294600F01BFD42464B4600F065FB02460B463046394600F05DFB22462B4600F059FB02460B460020D9
:403040003D4900F053FB8A44BAF5801FC0F237815146DDE9042300F0FDFC834618E4F346354915E44A4648463B46394600F0F2FC83460DE4344B21F000479F4240F3018101
:40308000324B0B4403430CD142464B4600F02EFB02460B46DDE9000100F058FF00283FF4FBAE23A3D3E90023DDE9040100F0D2FC1FA3D3E9002300F0CDFC8346FFF7E8BB5A
:4030C000BAF1000FBFF6AEACDDE900349B4604F10041FFF7DDBB02460B460020164900F0E3FD41E4AFF30080FE822B654715973C00000000432EE63FEF39FAFE422EE63FAF
:40310000396CA80C615C20BED0A4BE726937663EF16BD2C541BDBB3E2CDE25AF6A56113F93BDBE166CC1663F3E5555555555C53F59F3F8C21F6EA5010000F03F0000F0BFE3
:40314000FFFF8F40FFFF0F00FFCB904000346F3F6F4B9E427FF763AC6E4B9E423FF7EEAB00226C4B00F0C2FA5BA3D3E9002306460F4600F06FFC5AA3D3E9002380468946A3
:403180003046394600F066FC002282468B46624B3046394600F05EFC02460B4652A1D1E9000100F0A3FA32463B4600F053FC02460B460020594900F099FA3246CDE9020106
:4031C0003B463046394600F045FC02460B46DDE9020100F03FFC46A3D3E9002300F03AFC02460B465046594600F080FA02460B4606460F464046494600F07AFA42464B46A9
:40320000002082468B4600F071FA02460B463046394600F06BFA80468946D9E500220023CDE90823CDE90C233A4B00220026CDE906233DE44A463B460020364900F034FD9B
:403240008346FFF725BB2CA3D3E90023DDE9040100F000FC28A3D3E9002300F0FBFB8346FFF716BBBEF1000F7FF44FABC3F1140348FA03F202FA03F3984524D07446FFF78A
:4032800021BB264B9F423FF707AEDDE902349A469B462EE602460B46FFF7B9BB204B4FF48026CDE9062316A3D3E90023CDE9082315A3D3E90023CDE90C23FFF7F9BB5A46AF
:4032C00000F096F9C5E602F00102C2F10204FFF7F9BA00BFAFF30080000000604715F73F44DF5DF80BAE543E555555555555D53FFE822B654715F73F9C7500883CE4377E95
:403300000000004003B8E23F06D0CF43EBFD4C3EFEFFEF3F0000F03F0000D03F0000E03F0000F83F2DE9F0415F4E0C46B6460E407645054600F0988000290B46024674DDA7
:403340005FEA215E7FD0AEF2FF3EC3F313031EF0010F43F4801363D100273E4603EBD2710B444FEA6E0E520016204FF4001174189C424FEAD2754FEA420202DC1B1B6618BC
:403380000F44013805EB43034FEA5101EFD1844620244FF0004109E020D003EBD275013C4FEA51012B444FEA420220D09E4201EB0C05F1DA002D05EB010C09DBB04695423D
:4033C000A3EB060300D9013B4646521B0844E4E7BCF1000FF2DB06F10108F0E7954217D8002D05EB010C49DB98460023ECE7134310D140087B1003F17F5303F50013FA07ED
:4034000003EB0E57394648BF40F00040BDE8F0813346C2E7411C35D000F001031844E8E75B0003EBD273520096E721F000460643ECD079BB8E46D30AAEF1150E5205002BA8
:40344000F9D0DD0221D4002100E001465B00DC0201F10100F9D5C0F1200422FA04F42343C1EB0E0E82406EE702460B4600F0F2FA2A46234600F03CF9BDE8F081BCF1000FFA
:40348000A9DAB1E701372046B4E720244FF0FF310020E2E702460B4600F028F902460B4600F002FCB2E700BF0000F07F21F00041704700BF41F0004101F58010C00F7047DE
:4034C0000020704700200149704700BF0000F87FF0B5C1F30A5EAEF2FF36132E83B002460B460C464FEAD17507462EDC002E49DB3D49314103EA010010432BD049080B40B1
:4035000053EA02070CD04FF48023132E24EA010143FA06F444EA01040CBF4FF000470027324B214603EBC505D5E90045384622462B4600F0DDF8CDE90001DDE900012246AF
:403540002B4600F0D3F803B0F0BD332E06DDB6F5806F45D01046194603B0F0BDAEF2134E4FF0FF3121FA0EF10842F3D049080842D6D04FF0804320EA010143FA0EFE4EEA50
:403580000107CDE721F0004101431946E4D0C3F3130343EA000CCCF1000343EA0C0C134B640C4FEA1C3C0CF4002C03EBC5036404D3E900674CEA040132463B4600F098F81C
:4035C000CDE90001DDE9000132463B4600F08EF8024621F0004141EAC57310461946BBE700F086F8B8E700BFFFFF0F00A0640000F8B5C1F30A5604460D460B46174606BBE0
:4036000021F00043034325D000222F4B00F022FA2E4A044697420D460B462ADBC1F30A56363E40F2FE723E44964228DC002E12DD23F0FF4323F4E00343EA065520462946BE
:40364000F8BD40F2FF729642EBD102460B4600F04FF8F8BDF8BD16F1350F1DDA4CF250339F420CDC14A1D1E9000122462B4600F031F811A3D3E9002300F0ECF9F8BD224671
:403680000FA1D1E900012B4600F024F80CA3D3E9002300F0DFF9F8BD23F0FF4323F4E003363643EA0655204629460022084B00F0D1F9F8BDAFF3008059F3F8C21F6EA501C0
:4036C0009C7500883CE4377E00005043B03CFFFF0000903C03F0004321F0004242EA0301704700BF81F0004102E000BF83F0004330B54FEA41044FEA430594EA050F08BF9E
:4037000090EA020F1FBF54EA000C55EA020C7FEA645C7FEA655C00F0E2804FEA5454D4EB5555B8BF6D420CDD2C4480EA020281EA030382EA000083EA010180EA020281EA88
:403740000303362D88BF30BD11F0004F4FEA01314FF4801C4CEA113102D0404261EB410113F0004F4FEA03334CEA133302D0524263EB430394EA050F00F0A780A4F101043E
:40378000D5F1200E0DDB02FA0EFC22FA05F2801841F1000103FA0EF2801843FA05F359410EE0A5F120050EF1200E012A03FA0EFC28BF4CF0020C43FA05F3C01851EBE3710F
:4037C00001F0004507D54FF0000EDCF1000C7EEB00006EEB0101B1F5801F1BD3B1F5001F0CD349085FEA30004FEA3C0C04F101044FEA445212F5800F80F09A80BCF1004FC6
:4038000008BF5FEA500C50F1000041EB045141EA050130BD5FEA4C0C404141EB010111F4801FA4F10104E9D191F0000F04BF01460020B1FA81F308BF2033A3F10B03B3F1BB
:4038400020020CDA0C3208DD02F1140CC2F10C0201FA0CF021FA02F10CE002F11402D8BFC2F1200C01FA02F120FA0CFCDCBF41EA0C019040E41AA2BF01EB0451294330BD2D
:403880006FEA04041F3C1CDA0C340EDC04F11404C4F1200220FA04F001FA02F340EA030021FA04F345EA030130BDC4F10C04C4F1200220FA02F001FA04F340EA03002946B5
:4038C00030BD21FA04F0294630BD94F0000F83F4801306BF81F480110134013D4EE77FEA645C18BF7FEA655C29D094EA050F08BF90EA020F05D054EA000C04BF19461046C2
:4039000030BD91EA030F1EBF0021002030BD5FEA545C05D14000494128BF41F0004130BD14F580043CBF01F5801130BD01F0004545F0FE4141F470014FF0000030BD7FEA42
:40394000645C1ABF194610467FEA655C1CBF0B46024650EA013406BF52EA033591EA030F41F4002130BD00BF90F0000F04BF0021704730B54FF4806404F132044FF000057F
:403980004FF0000150E700BF90F0000F04BF0021704730B54FF4806404F1320410F0004548BF40424FF000013EE700BF42004FEAE2014FEA31014FEA02701FBF12F07F4368
:4039C00093F07F4F81F06051704792F0000F14BF93F07F4F704730B54FF4607401F0004521F0004120E700BF50EA010208BF704730B54FF000050AE050EA010208BF70475E
:403A000030B511F0004502D5404261EB41014FF4806404F132045FEA915C3FF4DCAE4FF003025FEADC0C18BF03325FEADC0C18BF033202EBDC02C2F1200300FA03FC20FABD
:403A400002F001FA03FE40EA0E0021FA02F11444C1E600BF70B54FF0FF0C4CF4E06C1CEA11541DBF1CEA135594EA0C0F95EA0C0F00F0DEF82C4481EA030621EA4C5123EA12
:403A80004C5350EA013518BF52EA033541F4801143F4801338D0A0FB02CE4FF00005E1FB02E506F00042E0FB03E54FF00006E1FB03569CF0000F18BF4EF0010EA4F1FF04D6
:403AC000B6F5007F64F5407404D25FEA4E0E6D4146EB060642EAC62141EA55514FEAC52040EA5E504FEACE2EB4F1FD0C88BFBCF5E06F1ED8BEF1004F08BF5FEA500E50F182
:403B0000000041EB045170BD06F0004646EA010140EA020081EA0301B4EB5C04C2BFD4EB0C0541EA045170BD41F480114FF0000E013C00F3AB8014F1360FDEBF002001F06B
:403B4000004170BDC4F10004203C35DA0C341BDC04F11404C4F1200500FA05F320FA04F001FA05F240EA020001F0004221F0004110EBD37021FA04F642EB06015EEA430ED2
:403B800008BF20EAD37070BDC4F10C04C4F1200500FA04F320FA05F001FA04F240EA020001F0004110EBD37041F100015EEA430E08BF20EAD37070BDC4F1200500FA05F2C0
:403BC0004EEA020E20FA04F301FA05F243EA020321FA04F001F0004121FA04F220EA020000EBD3705EEA430E08BF20EAD37070BD94F0000F0FD101F00046400041EB0101CA
:403C000011F4801F08BF013CF7D041EA060195F0000F18BF704703F00046520043EB030313F4801F08BF013DF7D043EA0603704794EA0C0F0CEA135518BF95EA0C0F0CD05F
:403C400050EA410618BF52EA4306D1D181EA030101F000414FF0000070BD50EA410606BF1046194652EA430619D094EA0C0F02D150EA013613D195EA0C0F05D152EA0336A9
:403C80001CBF104619460AD181EA030101F0004141F0FE4141F470014FF0000070BD41F0FE4141F4780170BD70B54FF0FF0C4CF4E06C1CEA11541DBF1CEA135594EA0C0FE2
:403CC00095EA0C0F00F0A7F8A4EB050481EA030E52EA03354FEA013100F088804FEA03334FF0805545EA131343EA12634FEA022245EA111545EA10654FEA00260EF0004142
:403D00009D4208BF964244F1FD0404F5407402D25B084FEA3202B61A65EB03055B084FEA32024FF480104FF4002CB6EB020E75EB030E22BFB61A754640EA0C005B084FEAE4
:403D40003202B6EB020E75EB030E22BFB61A754640EA5C005B084FEA3202B6EB020E75EB030E22BFB61A754640EA9C005B084FEA3202B6EB020E75EB030E22BFB61A754679
:403D800040EADC0055EA060E18D04FEA051545EA16754FEA06164FEAC30343EA52734FEAC2025FEA1C1CC0D111F4801F0BD141EA00014FF000004FF0004CB6E711F4801FA9
:403DC00004BF01430020B4F1FD0C88BFBCF5E06F3FF6AFAEB5EB030C04BFB6EB020C5FEA500C50F1000041EB045170BD0EF0004E4EEA113114EB5C04C2BFD4EB0C0541EABF
:403E0000045170BD41F480114FF0000E013C90E645EA060E8DE60CEA135594EA0C0F08BF95EA0C0F3FF43BAF94EA0C0F0AD150EA01347FF434AF95EA0C0F7FF425AF10469F
:403E400019462CE795EA0C0F06D152EA03353FF4FDAE1046194622E750EA410618BF52EA43067FF4C5AE50EA41047FF40DAF52EA43057FF4EBAE12E74FF0FF3C06E000BF36
:403E80004FF0010C02E000BF4FF0010C4DF804CD4FEA410C7FEA6C5C4FEA430C18BF7FEA6C5C1BD001B050EA410C0CBF52EA430C91EA030F02BF90EA020F0020704710F142
:403EC000000F91EA030F58BF994208BF90422CBFD8176FEAE37040F0010070474FEA410C7FEA6C5C02D150EA013C07D14FEA430C7FEA6C5CD6D152EA033CD3D05DF8040B72
:403F0000704700BF8446104662468C461946634600E000BF01B5FFF7B7FF002848BF10F1000F01BD4DF808EDFFF7F4FF0CBF012000205DF808FB00BF4DF808EDFFF7EAFF0C
:403F400034BF012000205DF808FB00BF4DF808EDFFF7E0FF94BF012000205DF808FB00BF4DF808EDFFF7CEFF94BF012000205DF808FB00BF4DF808EDFFF7C4FF34BF01208D
:403F800000205DF808FB00BF4FEA410C7FEA6C5C02D150EA013C0AD14FEA430C7FEA6C5C02D152EA033C02D14FF0000070474FF0010070474FEA4102B2F1E04324BFB3F55A
:403FC000001CDCF1FE5C0DD901F0004C4FEAC0024CEA5070B2F1004F40EB830008BF20F00100704711F0804F21D113F13872BCBF01F00040704741F480114FEA5252C2F112
:404000001802C2F1200C10FA0CF320FA02F018BF40F001004FEAC1234FEAD32303FA0CFC40EA0C0023FA02F34FEA4303CCE77FEA625307D150EA01331EBF4FF0FE4040F4AD
:404040004000704701F0004040F0FE4040F40000704700BF80F0004002E000BF81F0004142001FBF5FEA410392EA030F7FEA226C7FEA236C6AD04FEA1262D2EB1363C1BF39
:40408000D218414048404140B8BF5B42192B88BF704710F0004F40F4000020F07F4018BF404211F0004F41F4000121F07F4118BF494292EA030F3FD0A2F1010241FA03FC65
:4040C00010EB0C00C3F1200301FA03F100F0004302D5494260EB4000B0F5000F13D3B0F1807F06D340084FEA310102F10102FE2A51D2B1F1004F40EBC25008BF20F00100C6
:4041000040EA03007047490040EB000010F4000FA2F10102EDD1B0FA80FCACF1080CB2EB0C0200FA0CF0AABF00EBC25052421843BCBFD0401843704792F0000F81F400014F
:4041400006BF80F400000132013BB5E74FEA41037FEA226C18BF7FEA236C21D092EA030F04D092F0000F08BF0846704790EA010F1CBF0020704712F07F4F04D1400028BF00
:4041800040F00040704712F100723CBF00F50000704700F0004343F0FE4040F4000070477FEA226216BF08467FEA23630146420206BF5FEA412390EA010F40F4800070473C
:4041C0004FF0000304E000BF10F0004348BF40425FEA000C08BF704743F0964301464FF000001CE050EA010208BF70474FF000030AE000BF50EA010208BF704711F0004308
:4042000002D5404261EB41015FEA010C02BF84460146002043F0B64308BFA3F18053A3F50003BCFA8CF2083AA3EBC25310DB01FA02FC634400FA02FCC2F12002BCF1004FED
:4042400020FA02F243EB020008BF20F00100704702F1200201FA02FCC2F1200250EA4C0021FA02F243EB020008BF20EADC7070474FF0FF0C1CEAD0521EBF1CEAD15392EA00
:404280000C0F93EA0C0F6FD01A4480EA010C400218BF5FEA41211ED04FF0006343EA501043EA5111A0FB01310CF00040B1F5000F3EBF490041EAD3715B0040EA010062F17B
:4042C0007F02FD2A1DD8B3F1004F40EBC25008BF20F00100704790F0000F0CF0004C08BF49024CEA502040EA51207F3AC2BFD2F1FF0340EAC250704740F400004FF00003D0
:40430000013A5DDC12F1190FDCBF00F000407047C2F10002410021FA02F1C2F1200200FA02FC5FEA310040F1000053EA4C0308BF20EADC70704792F0000F00F0004C02BFF2
:40434000400010F4000F013AF9D040EA0C0093F0000F01F0004C02BF490011F4000F013BF9D041EA0C018FE70CEAD15392EA0C0F18BF93EA0C0F0AD030F0004C18BF31F0B2
:40438000004CD8D180EA010000F00040704790F0000F17BF90F0004F084691F0000F91F0004F14D092EA0C0F01D142020FD193EA0C0F03D14B0218BF084608D180EA010041
:4043C00000F0004040F0FE4040F40000704740F0FE4040F4400070474FF0FF0C1CEAD0521EBF1CEAD15392EA0C0F93EA0C0F69D0A2EB030280EA010C49024FEA402037D0C6
:404400004FF0805343EA111143EA10130CF000408B4238BF5B0042F17D024FF4000C8B4224BF5B1A40EA0C00B3EB510F24BFA3EB510340EA5C00B3EB910F24BFA3EB910388
:4044400040EA9C00B3EBD10F24BFA3EBD10340EADC001B0118BF5FEA1C1CE0D1FD2A3FF650AF8B4240EBC25008BF20F0010070470CF0004C4CEA50207F32C2BFD2F1FF03AF
:4044800040EAC250704740F400004FF00003013A37E792F0000F00F0004C02BF400010F4000F013AF9D040EA0C0093F0000F01F0004C02BF490011F4000F013BF9D041EA02
:4044C0000C0195E70CEAD15392EA0C0F08D142027FF47DAF93EA0C0F7FF470AF084676E793EA0C0F04D14B023FF44CAF08466EE730F0004C18BF31F0004CCAD130F00042B9
:404500007FF45CAF31F000437FF43CAF5FE700BF4FEA4002B2F1FE4F0FD34FF09E03B3EB12620DD94FEA002343F0004310F0004F23FA02F018BF404270474FF000007047DB
:4045400012F1610F01D1420205D110F0004008BF6FF0004070474FF00000704742000ED2B2F1FE4F0BD34FF09E03B3EB126209D44FEA002343F0004323FA02F070474FF0F3
:404580000000704712F1610F01D1420202D14FF0FF3070474FF00000704700BF014B1868704700BF5481FF1F0E4B70B51E460E4C0025E41AA410A54204D056F82530984789
:4045C0000135F8E701F076FF084B094C1E46E41AA4100025A54204D056F8253098470135F8E770BDC0640000C0640000C0640000C864000010B5431E0A44914204D011F822
:40460000014B03F8014FF8E710BD03460244934202D003F8011BFAE77047000000000000005B0040005B004002080000045B0040244300402D510040045B00400800042043
:40464000004F00400C00405100403000C05100401000F0510040100000000140001000140140000800400140000A004C014000020050014020000000FDF6EAD9C6B6A89BBE
:4046800090857A6E5F4E3A281913151F2B3D51667A90A5BACDD9E1DFD7CBBDAEA2988E847A706252402F2015151A253546596E8195A9BBCDD9DDDCD4C8BAACA1968C847BD2
:4046C00072675849392A1F191A212C3B4C5E708194A8BACAD4D8D7D2C8BBAFA399918A827A7066594B3D2F231E1E242D3A495968778998A8B7C5CFD4D5D0C8BEB2A79D93E1
:404700008B837C7266584737261A1417202F41556A8197AFC7D8E3E4E0D5C3B3A4968C82776A5A4634221611151F3042576C8096ACC1D2DCDEDAD1C5B7AA9E948C857D736D
:4047400067594A3B2C211D1F26313F4F5F6F7F91A2B3C2CED4D7D4CDC4B7ACA298908880766C5E4E3E2E1F17161D28384A5D71859BB0C4D4DEE0DBD2C3B4A79C90877E740D
:40478000695A493A291D1718212E3F4F6274879AACBECCD5D9D7CFC5B8ABA199908880786E635546372B221D202734425163748596A8BACAD4D8D7D2C8BBAEA2988E8780E0
:4047C000766B5E4D3E2E2018181F2A3A4C5F728698ADC0D0D9DAD7CFC3B5A79B938A81786E62524233241C1A1E2837475A6D7E91A6B8C9D5DADAD4CABDAFA39890897F75C0
:404800006A5C4C3C2C20191A202C3C4D6073869AAEC0D0DADCD9D0C3B5A89D938880786C5F4E3D2D1F18181F2C3B4D62768A9FB3C6D5DDDDD6CCBEAFA3988F857B716553C6
:4048400042302016141A26374A5E73899EB4C8D6DEDED8CDBEB0A2978E82796D5F4C3B2A1A14151E2D3E52687C92A8BCCFDADFDCD4C6B6A99C92887E7366564533231816E2
:404880001B2636495D72869DB3C7D7DEDDD7CDC0B0A2978E867C70635241312219161C28394C6074889EB2C5D3DBDCD8CDC1B3A69B918980776A5D4C3C2D211A1B232F3EE4
:4048C0004F63738699ADBECCD6D9D6CFC5B7AC9F958D857D746A5F50423327211F232C38475869798B9CADBDCBD4D7D4CEC5B9AFA59A918A837C73685C4F42372B242226C8
:404900002D38475565748698ACBECFDCE1E0D8CDBEAFA2978C82766A5A473522140F131F30455B7289A1B8CDDDE4E1D9CCBCAD9E948B82796F61514030221B1A202B3A4C11
:404940005E718498ACBDCDD7DBD8D1C7BBAFA499908981786E625445382B211E212832405060708091A4B5C4D0D9DBD8D1C5B8ACA0968E857B706151402E1E1514192638BF
:40498000495E7389A0B7CBDAE2E1DACFBFAFA2978C83796F615241302119171E2A38495D708498ACBFCFDADDD9D1C5B7AA9F958C847A7064544332231A181C263444576B3A
:4049C0007E91A6B9CAD7DEDCD5CBBEB1A59A90877E7468594837271C1719212E3E5165788B9FB4C7D7DEDDD9CEC2B3A79A90877E75695A4736261B1518202E4154697C9184
:404A0000A8BCCEDBE1DDD5CABCAD9F948C83796D5D4A38261912141D2D3E52687C92A9BED2DEE2DED5C8B8A99E92887E736554412E1E1310152335495E7389A0B7CBDAE113
:404A4000E0D9CDBDAEA0948B82786B5C4936251812151F2E41556A8196ADC2D4DEE1DCD2C4B5A79B91877E74665644312317151A2535475C708399AEC2D3DCDEDBD1C6B6C1
:404A8000A99E938A82786B5E4D3D2D201919202C3C4C60728598ABBECFD8DCD9D3C9BBADA1978E877E756A5E4F4031251E1C222B3A4858697B8D9FB0C1CFD9DBD8D0C6B9C1
:404AC000ADA299908881797062534233241A171C2636485D71859AB0C6D9E3E5E0D5C5B4A5998E84796C5B473320120E131F3043596F849AB0C5D7E1E1DDD2C4B5A79C91FC
:404B0000887F7468594837251A1518212D3D4F62748698ADBFD0DADDDBD4CABDAFA2988F887F766C5F4F402F2118151C2737485B6F8297ACC1D3DFE3DFD6C8B8AA9D93894C
:404B4000807669584633211410141F2F42556B8095ABC0D1DFE2E0D7C9BAAA9F948B82796D60503F2D1E16141B2636465A6D8195A8BBCDDAE0DED7CABDB0A3988F877E7528
:404B80006A5A4A39281C15161D293A4C6073879BB0C4D4DFE1DDD4C6B7A99D91888076695A4735241710141D2C3F52677B90A7BED2E0E5E1D8CBBBAB9E948A80776B5A4764
:404BC0003422140E111C2A3E536A7F95ADC4D7E3E7E1D5C7B6A89C91877D71624F3C28170D0D1624374C647A90A7BFD3E1E6E2D8C9B9AA9D92877C70604E3A26160B0C17FD
:404C000027394F667D93ACC4D6E2E7E3D8C7B6A79B90867B6E5F4B3825150E101C2B3E556B8199B1C8DBE5E6E0D4C5B5A5998E857B6E604C3926170F111B2A3D52687C9419
:404C4000ACC1D4E1E5E0D6C9B9AB9F938A81766A59473423171215212F41566A7D92A7BACDDBE0DFD8CDBFB1A3998F867D7367584636271B1719212D3D506274879BAFC08B
:404C8000D0DBDFDCD4C9BBAEA2978F867E766B5D4E3E2E201A191E293646596B7C8FA2B5C5D5DDE1DFD6CABBAEA2988E82776956422C190B0911203349617891ACC6DBEADF
:404CC000EDE7DCCAB7A89A8E82776956432F1C0E0A0F1D2E435A6F869CB3C9DBE5E7E1D6C8B6A89B90877D756757463625191517222F3F5266788C9FB3C5D5DDDED9D1C523
:404D0000B7AA9E958D847D7367584837271C1619212D3D4F63758BA3B8CCDEE7E8E2D6C6B5A6998E857A6F5F4B3723130B0D19293C536A8098AFC5D8E4E3DDD3C3B3A599B6
:404D40008F867B6F614F3C291B12121B293B4F65798FA6BBCFDEE4E2DBCEBEAEA1948A8176695846311E0D0402060F19242F3A434B53595E6466686B6D6F7072737475761D
:404D80007777787978777979797A7979797979797979797A7A7B7C7B7C7D7C7C7D7C7D7E7F80828385878A8E92989FA7B2BECCDAE9F6FBFAF3E8D8C8B6A99D92887D6F5F56
:404DC0004C3825160F121C2B3E53697F95ACC2D4E0E2DED4C6B7A89B91877D736655433121171419233345596D8197ACC0D1DCDFDCD3C7B9AC9F948B82796F6353423124AB
:404E00001A171B263545586B7F94AABECFDBE0DED6CABAACA0958C847B706251402F1F16131B2636495E708498AEC1D1DBDEDAD2C5B6AA9E948B837A6E61524131231A182A
:404E40001D2938495C6F8397ABBDCFDADFDED5C9BAADA0968E847C7267584637271D191C25314256697A8EA2B4C5D3DBDDD7CDC2B4A89C938A82796F63524334251B191C3D
:404E80002533435568798CA0B3C4D2D9DAD7CEC3B6A99C938B857C73695B4C3D2E211B1C212D3C4C5E6F8093A6B7C7D3D9D9D3CABEB0A59B928980787064564737281E1B6B
:404EC0001C24313F5062738496A9BAC9D3D8D7D1C8BBB0A499908881786F6457483B2D221E1E24303D4D5D6E7F91A3B5C4D1D8D7D2C9BFB1A69B928B837B72685B4D3F30DE
:404F0000251F1D222B39485969798A9BADBDCBD3D6D4CDC3B6AB9F958D857E766C6052433529201B1F2733425264758798A8BAC9D2D6D5CFC5BAADA1988F8880776D6254F9
:404F400045372A1F1C1E2633415062748598AABCCBD4D8D6D0C4B8ABA0958E867E756B5E4E4030231B191F293747596B7D8FA1B4C4D1D7D7D3CABDB0A49990887F766B5F45
:404F80004F4030241B191D273646576A7C8FA3B7C8D5DAD9D3C8BBADA1968C867E746A5C4C3B2C1F18171E2B3C4D60738699ADBECDD6D8D5CFC4B7AA9F968D847B71645541
:404FC0004637291F1B1E273342536576899BAFBFCDD7DAD7CFC3B6A99D948C847D746A5D4F4032251F1F232D3A4A5B6D7D8EA0B1C0CCD3D5D2CBC2B7ABA197908880796F4F
:4050000064584A3E3228232228313D4B5B6C7C8EA1B3C4D2DADBD7CFC3B5A89D948B83796D5F4D3D2B1C15161F2C3D51667A8FA4B9CBD8DFDDD6CBBCAEA2978E847B71654B
:40504000564637291F1B1E273342536576889AADBECDD7D9D8D1C7BBAFA398918A837C746A5E51423529221F232B3846556677889AACBDCCD7DCDBD5CABEB0A49A90887EA7
:405080007468594838281B181B2431415367788CA0B4C7D5DCDDD8CEC2B4A79C928A8279706557483B2D221D1F26303E4E5F6F7F90A1B2C1CED4D7D4CDC4B7ABA1978F88B6
:4050C0008079706558493A2C201A1D232D3C4C5E6F8193A6B9C9D5DCDBD6CCBEB1A49990887F766C5E4F3E2F2119191E2837485A6D7E91A5B8C9D5DBDBD6CCC0B2A59B92B1
:405100008A82796F63554536271D191D2531405164748799ACBDCDD6DBD9D4CABBAEA3988F8780766C5F4F3F30231A191F283546586B7C8FA2B6C8D4DCDDD8CFC2B3A79C66
:40514000918A81786D60503F2E1F16141A253446596C8094A8BDCEDBDFDDD6CABCAEA1968C847B706251402E1E1412182434465A6E8297ADC2D4DFE2DDD3C7B6A99B918826
:405180007F7568594836221611141D2C3F53687C91A6BCD0DCE1DFD6CABAAB9F958B82786C5D4C3B291A13131C29394D62768BA0B4C8D7DEE0DACFC1B3A4988F877C736627
:4051C000574635261A1518212F405366798CA0B5C7D5DDDED8CFC2B3A79B928981796F62534433251B181C2633435466778A9CAEC0CFD8DBD9D2C8BCAFA2989088817A7076
:405200006558493B2E221D1E242E3A495A6978889AABBBCAD5D9DAD5CDC2B4A79C938B847B71645442301E1210152333485E738AA1BAD0E0E8E9E1D4C3B3A5998D84796C1C
:405240005B483421130E121C2D3F52677B8FA5B9CEDCE3E2DCD2C3B4A79C918981786E62544535261C191C242F3E4D5F6F7F91A2B3C4D2DBDDDBD4CABDB0A59A91898178C4
:405280006D614F3F2D1D121017223144576C8096ABC1D4E2E5E4DBCDBDAEA1968B82776B5B4A37241610131B28394C6073869AAFC3D4DFE2DED4C7B8AB9E938A847C726710
:4052C00059493A291D17181F2A394A5D6E7F93A6B9CAD6DBDBD7CFC3B4A89D948C857D7367594939281A14151E2A394A5D6F8194A8BCCFDDE3E4DCCFC0B1A3978D847B7185
:40530000645442301E130E141F2D3F53687D92A8BDD1DEE4E0D9CDBBADA1968C82796D5F4C3925160E0F1826384C63788DA5BBD0DFE7E5DDCEBEAFA1958B82766958453141
:405340001D0E0A0F1B2C40566D839BB3C9DCE6E8E1D4C4B2A3968C83776A5A46321E0F09101C2D41586F869FB8CEDFE8E7DFD2C1B0A2968C82776959442F1C0E0B1120319A
:40538000475E758BA5BCD2E1E7E5DCCEBDAFA2968C8277695743301D110E142131455C72879DB3C8D8E3E6DFD4C5B6A89D91887D726553412F201412192433445A6C8096F4
:4053C000AABFD1DEE3E1D8CCBEAFA2978E867D73685A4939281C17181F2C3B4C5F718395A8BBCDD8DEDDD8CFC3B5A99E948B847D73685C4D3F31251D1B202A36435262738E
:405400008294A4B5C5D1D9DBD8D2C7BBAFA49A918A81796F61513E2C1B0F0E152133475D748BA2BAD1E4ECECE3D4C2B1A3968B817465513D28150A0A1421354B61768DA5E8
:40544000BCD0DEE6E4DDCFBFAFA2968D857C736658473524191518212D3E4F6275869AADBFCFDADEDDD5CBBDB0A4999088817A6F64564738291D1718202B3A4A5D6F809436
:40548000A9BDCFDCE2E2DACDBEB0A2978E847B6E614F3C28180D0D152335495E748AA1B8CEDDE4E3DCCFC0AFA1958C82796E5F4E3C291A1110172435485D71869BB1C7D723
:4054C000E1E3DED3C5B5A79A8F867C726555422E1C0B0202070F19242F3B434B52585E6264686A6D6F71727373747475767676777878787778787979797A7A7A7A7A7A7BCD
:405500007A7A7A7B7B7B7B7C7D7F7F7F818485898C90959BA3ADB8C6D4E4F2F9FB00000080848A8F94989EA2A8ACB2B6BCC0C6CAD0D5DADEE4E8EEF2F8FCF8F2EEE8E4DE00
:40554000DAD4D0CAC6C0BCB6B2ADA8A29E98948F8A84807A76706B66615D58534E49443E39342F2A25211C17120D0803080D12171C21252A2F34393E44494E53585D6166F1
:405580006B70767AF9F8F9F8F8F9F8F8F8F7F7F8F8F9F8F8F9F8F9F8F8F9F8FAFAFAFAFCFBFCFBFBFBFBFBFBFAFAFAFAFBFAFAFAF8F8F8F7F9F8F9F9F8F9F9F9F9F8F9F9BD
:4055C000F8F8F9F8F9F8F9F9F8FAFAFAFBF9FAFCFAFCFBFCFDFCFCFDFCFCFBFBFBFAFBFAF9FAF9F8F9F9F9F9F8F9F8F8F9F9F9F9F9F9F9F9F9F9F9F9F8F9F9FAFBFAFBFB3C
:40560000FBFCFCFCFEFCFDFCFDFDFCFBFCFAFBFAF8F8F7F7F7F6F7F8F7F7F7F7F8F6F7F8F5F7F6F6F8F6F7F7F7F6F8F7F8F8F8FAF9F9FAF9F9FBFBFBFBFAFBFBFAFAF9FA26
:40564000FAF8F8F8F8F8F8F6F7F8F7F7F7F7F8F7F7F8F8F8F8F7F9F7F8F8F8F8F9F9F9F9F9FBFAFBFBFAFBFAFAFBFBFAFAFAF8F9F9F8F8F6F6F6F6F6F6F6F6F6F5F5F6F528
:40568000F5F4F5F6F5F5F5F4F5F5F4F5F5F6F7F5F6F7F7F7F8F7F8FAF9F9FAF8F9F9F7F8F7F7F8F6F5F6F6F7F7F6F6F6F4F5F5F5F6F6F5F5F6F6F7F6F6F5F4F5F6F5F7F75C
:4056C000F7F8F7F7F8F9F8F9F8F8F8F7F9F9F8F8F8F7F6F7F5F5F5F4F5F4F5F5F6F5F6F5F4F5F5F4F6F4F5F6F4F5F6F5F6F7F6F7F8F7F8F8F8F8F8F9FBFAF9FAF9F9FAF8F1
:40570000F8F9F7F8F7F5F6F6F5F6F5F4F5F5F4F2F2F4F4F3F5F4F4F5F4F4F5F5F5F7F6F7F7F7F8F9F8FAFAF9FBFAFAFAFAFAFAF9F9FAF8F8F8F6F5F6F4F5F6F5F5F4F6F6CA
:40574000F6F6F7F6F6F6F6F7F6F6F6F5F5F6F5F6F7F7F8F8F8F9F9F9FAFAFAFAF9FAF9F9FAF9F8F8F7F8F7F6F6F7F6E9020303030303030303030303030303030303030376
:405780000303030303030303030303030303030303030303030303030303030303030303030303030303030303030303030303030303030303030303030303030303030329
:4057C00003030303030303030303030303030303030303030303030303030303030303030303030303030303030303030303030303030303030303030303030303030303E9
:4058000003030303030303030303030303030303030303030303030303030303030303030303030303030303030303030303030303030303030303030303030303030303A8
:40584000030303030303030303030303030303030303030303030303030303030303030303030303030303030303030202020202030303030303030303030303030303036D
:405880000303030303030303030303030303030303030303030303030303030303030303030303030303030303030303030303030303030303030303030303030303030328
:4058C00003030303030303030303030303030303030303030303030303030303030303030303030303030303030303030303030303030303030303030303030303030303E8
:4059000003030303030303030303030303030303030303030303030303030303030303030303030303030303030303030303030303030303030303030303030303030303A7
:405940000303030303030303030303030303030303030303030303030303030303030303030303030303030303030303030303030303030303030303030303030303030367
:405980000303030303030303030303030303030303030303030303030303030303030303030303030303030303030303030303030303030303030303030303030303030327
:4059C000030303030303030303030303030303030303030303030303030303030303035AF7F8F7F8F7F8F8F6F8F9F8F9F8F7F8F7F8F8F8F8F8F7F8F8F8FAFAFAFBFBFBFBE4
:405A0000FBFBFBFCFCFBFCFCFBFAFAF9F9F8F8F8F7F8F8F8F9F8F8F9F8F8F9F7F9F7F9F9F8F8F9F7F7F8F7F9F8F8F9F9F9F9F9FAF9F9FAF9F9F9F9FAFAF9F9FBF9FAF8F725
:405A4000F8F7F8F8F7F7F6F7F7F6F5F6F6F5F1EEF5F6F6F5F6F7F7F7F6F7F7F8F8F6F8F9F9F9FAFAFBFAF9FAF9FAFAF9F9F8F7F7F7F7F7F7F7F7F6F6F5F5F5F7F7F7F6F764
:405A8000F7F6F7F7F7F7F7F7F9F7F9F8F9FAFBFBFBFBFBFCFAFBFBFBFBFAFBFBFAF9F9F8F8F6F5F6F8F7F8F7F7F7F7F8F8F7F7F6F6F7F6F7F7F7F7F7F6F8F8F8F9F9F9FAD5
:405AC000FAFBFBFBFCFBFCFCFBFBFBFAFAFAF9F8F7F7F8F7F7F8F7F7F6F7F8F6F8F8F8F8F8F8F9F8F8F9F7F8F8F7F8F8F9FAFAFBFBFBFCFBFBFDFBFCFCFCFDFCFBFCFBFA46
:405B0000FAF8F8F9F8F8F8F9F9F80C030303030303030303030303030303030303030303030303030303030303030303030303030303030303030303030303030303030305
:405B40000303030303030303030303030303030303030303030303030303030303030303030303030303030303030303030303030303030303030303030303030303030365
:405B80000303030303030303030303030303030303030303030303030303030303030303030303030303030303030303030303030303030303030303030303030303030325
:405BC00003030303030303030303030303030303030303030303030303030303030303030303030303030303030303030303030303030303030303030303030303030303E5
:405C000003030303030303020203030303030303030303030303030303030303030303030303030303030303030303030303030303030303030303030303030303030303A6
:405C40000303030303030303030303030303030303030303030303030303030303030303030303030303030303030303030303030303030303030303030303030303030364
:405C80000303030303030303030303030303030303030303030303030303030303030303030303030303030303030303030303030303030303030303030303030303030324
:405CC00003030303030303030303030303030303030303030303030303030303030303030303030303030303030303030303030303030303030303030303030303030303E4
:405D000003030303030303030303030303030303030303030303030303030303030303030303030303030303030303030303030303030303030303030303030303030303A3
:405D40000303030303030303030303030303030303030303030303030303030303030303030303030303030303030303030303030303031CF6F8F8F8F6F7F7F6F7F8F7F8D8
:405D8000F7F6F6F6F5F6F6F7F6F7F6F6F6F7F6F5F5F6F5F7F7F7F9F8F9F9F8F8FAF9F8FAF8F9FAF8F9F7F7F8F6F6F6F5F5F6F5F5F6F4F6F6F4F6F6F5F6F5F5F4F4F4F5F545
:405DC000F4F4F4F4F6F4F4F6F5F5F6F5F5F8F5F6F9F8F8F8F8F7F9F6F6F6F4F4F4F4F5F5F5F5F5F3F5F4F5F4F5F4F5F5F3F5F4F4F5F5F4F4F5F5F6F6F5F7F6F7F7F8F8F945
:405E0000F8F7F9F7F7F7F7F7F7F5F5F5F3F4F4F4F5F5F4F2F4F4F3F4F3F4F3F3F4F4F3F3F4F3F3F4F4F5F5F5F6F6F6F7F8F7F9F8F7F7F7F7F7F7F7F6F5F6F6F4F4F5F5F311
:405E4000F4F4F3F4F4F4F5F3F4F5F4F4F4F5F4F4F3F3F4F3F5F5F5F7F7F7F7F8F6F8F9F7F8F9F7F9F8F8F9F8F7F7F6F6F5F5F4F5F4F4F5F5F5F6F5F4F5F4F5F6F5F5F6F4C6
:405E8000F6F5F4F6F6F5F7F6F6F7F7F7F7F7F8F9F8F8F9F7F8F8F7F9F8F7F8F7F5F6F5F5F6F6F6F6F5F5F6F5F5F5F4F5F5F5F6F6F4AA0203030303030303030303030303EB
:405EC00003030303030303030303030303030303030303030303030303030303030303030303030303030303030303030303030303030303030303030303030303030303E2
:405F000003030303030303030303030303030303030303030303030303030303030303030303030303030303030303030303030303030303030303030303030303030303A1
:405F40000303030303030303030303030303030303030303030303030303030303030303030303030303030303030303030303030303030303030303030303030303030361
:405F80000303030303030303030303030303030303030303030303030303030303030303030303030303030303030303030303030303030303020202020202030303030327
:405FC00041F4F5F4F4F3F4F4F4F5F5F4F5F5F5F4F5F4F4F5F2F4F4F4F5F5F4F5F5F5F7F6F7F7F7F7F7F7F7F9F7F7F8F7F7F6F6F5F5F4F4F5F3F5F4F4F5F5F4F4F4F3F4F413
:40600000F4F4F4F4F4F4F3F5F5F5F5F6F5F6F6F6F8F7F7F8F7F8F9F7F8F8F7F7F6F5F6F7F5F5F4F2F4F4F4F5F5F4F5F5F4F5F4F5F5F5F5F6F5F5F6F5F5F5F5F6F7F6F7F800
:40604000F7F9F8F8F9F9F9FAF8F9FAF8F9F9F8F9F7F6F5F5F4F5F5F4F5F4F6F6F5F4F6F5F6F6F4F6F6F5F6F5F5F5F6F6F7F7F7F8F7F8F8F7F8F8F9FAF9F8F9F9F9F9F8F85E
:40608000F9F7F7F6F6F7F6F5F6F6F5F7F6F6F6F5F6F5F5F6F6F5F6F6F6F6F5F6F8F6F8F8F8F9F9F9FAFAFAFBFAFAFAF9FAF9F9FAF9F7F8F6F7F7F6F7F7F6F7F7F7F8F7F710
:4060C000F8F7F7F6F6F6F6F6F6F5F7F7F6F8F8F8F9F9F9FAF9FBFAFAFBFBFBFCFAFAFAF9F9F9F8F7F7F7F8F7F6F8F7F8F8F7F8F7F8F8F7F8F8F7F9F8F8F9F8F8F8F8F9F999
:40610000FAFBFBFBFCFBFBFCFBFCFCFCFCFCFCFCFBFCFAF9F9F7F7F8F8F7F7F7F8F8F8F9F7F7F7F7F9F7F7F8F7F8F7F7F8F7F6F7F6F8F9F8F8F9F8FAFAF7FAF9F7F9F8F727
:40614000F8F8F8F7F6F6F6F4F5F6F6F5F5F4F5F5F5F6F5F6F6F4F6F6F5F5F6F5F7F5F7F7F7F8F8F8F9F9FAFAF9FAFBFAFBFAF9F9FAF9FAF9F9F7F8F7F7F5F7F7F6F7F6F65A
:40618000F6F6F5F6F6F5F6F5F6F5F5F6F5F3F5F5F5F6F5F5F7F7F8F9F8F8FAF8F8F9F9F8F9F8F8F8F6F5F6F4F6F4F5F6F5F5F5F5F4F5F3F5F5F6F5F6F5F6F6F5F6F6F6F75D
:4061C000F6F7F7F7F8F9F8F8F9F9FAFAF9FAFAF9FAF9F8F9F7F7F7F5F5F6F5F5F5F4F5F5F5F6F6F4F6F5F5F6F5F6F7F4F5F5F5F6F6F6F8F8F8F8F8F8FAF8F9F9F8F8F8F8DB
:40620000F9F9F8F8F8F7F7F6F5F6F5F6F6F6F7F6F6F5F5F5F6F7F5F6F5F5F6F6F5F6F5F7F7F6F7F8F8F9F9F9FAFAFAFBFAFAFBF9FAFAF9F9F8F8F9F7F7F7F6F7F7F6F7F78B
:40624000F5F7F6F7F7F6F7F7F6F6F7F6F7F7F5F6F5F7F8F7F8F9F9F9FAF9FBFAFAFBFAFAFBFAFAFAF9F9F9F8F8F6F7460303030303030303030303030303030303030303F6
:40628000030303030303030303030303030303030303030303030303030303030303030303030303030303030303030303030303030303030303030303030303030303031E
:4062C00003030303030303030303030303030303030303030303030303030303030303030303030303030303030303030303030303030303030303030303030303030303DE
:40630000030303030303030303030303030303030303030303030303030303030303030303030303030303030303030303030303030303030303030303030303030303039D
:4063400003030303030303030303030303030303030303030303030303030303030303030303030303030331F5F6F7F6F7F6F6F6F6F6F7F6F7F9F8F8F9F9F9F9FAFBFBFB3E
:40638000FBFBFBFBFAFBFBFAFAF8F8F7F7F7F7F6F6F6F6F6F6F6F6F6F6F7F6F7F6F6F5F6F5F6F6F6F6F6F7F8F7F8F9F8F8F9F9F9FAF9F9F9F9FAF8F8F9F8F8F8F6F6F5F5F6
:4063C000F6F6F6F6F5F5F5F5F5F5F4F4F6F5F5F4F5F6F5F6F6F6F7F7F7F8F8F9FAF9FAFAFAFBFBFBFBFAFAFAF9F9F9F8F8F8F6F8F7F7F8F6F7F8F6F7F6F7F8F7F7F8F7F7CE
:40640000F8F7F7F8F6F7F6F8F8F7F9F9F9F9F9F9FAFAFBFBFAFBFBFAFAF9F9FAF9F8F7F6F7F6F7F8F7F8F8F7F700000080848A8F94989EA2A8ACB2B6BCC0C6CAD0D5DADEE7
:40644000E4E8EEF2F8FCF8F2EEE8E4DEDAD4D0CAC6C0BCB6B2ADA8A29E98948F8A84807A76706B66615D58534E49443E39342F2A25211C17120D0803080D12171C21252A44
:406480002F34393E44494E53585D61666B70767A6C6F670000000000706F770000000000000000000000304300000000000030C343000000F8B500BFF8BC08BC9E467047CD
:4064C0004D00000079070000F8B500BFF8BC08BC9E46704729000000E8640000C880FF1F90000000A000000000000000010000000080A6437F8000000F0000000000A08CA1
:40650000401901004800000000A24A0401FFFFFFFFFF01000000000000000000000000000000000000000000000000000000000000000000B06400000000000000000000B8
:4065400000000000000000000000000000000000000000000000000000000000000000000000000000000000000000000000000000000000F480FF1F000000000000000089
:4065800000000000000000000000000000000000000000000000000000000000000000000000000000000000000000000000000000000000000000000000000000000000DB
:4065C000000000000000000000000000000000000000000000000000000000000000000000000000000000000000000000000000000000000000000000000000000000009B
:40660000000000000000000000000000000000000000000000000000000000000000000000000000000000000000000000000000000000000000000000000000000000005A
:40664000000000000000000000000000000000000000000000000000000000000000000000000000000000000000000000000000000000000000000000000000000000001A
:020000040003F7
:0200000480007A
:40000000024F004001520040025A0040036400404A0201402E03014003050140040601400407014001090140300A0140120B01401F0C0140120D01400115014001170140DA
:4000400001190140011B0140074001400C4101400742014007430140044401400645014003460140024701400348014004490140034C0140024D0140055001400251014010
:4000800001800A27000887018F0122C7830D8C0D06011202160418021A012E04300334043BC03E1040644502480149FF4AFF4BFF580459085A045B045C225D025F01608066
:4000C0006240634064406540668068806A806C806E808001870192089A04AA07AB01B001B204B301B408B602BF04C060C103C5D2C701C813C9FFCAFFCBFFCDA0CF04D0184F
:40010000D280D405D804D904DA04DB04DC03DD33DF01E040E2C0E440E540E6C0E8C0EAC0ECC0EEC0038004080A040B400D020F281208154019101A541B801D021E081F02BD
:4001400022042580291039083B084104450249114B084C044F08520859015A486D4073407F0280048E04A580B580C028C27AC482CA04CE02D082D224D60BDE10E240EA1035
:40018000AA10B710E810B982BF41D904DF01200221028102EE02AE2013011F0135014041410549FF4AFF4BFF4F015018528059045A045B045C105D115F0160406240644078
:4001C0006540668068806A806C806E80C051C104C9FFCAFFCBFFCD83CE03CF01D018DA04DB04DD01DF01E040E240E440E540E680E880EA80EC80EE80222031824182458029
:40020000470148024F406C026F037102734097409F01A180A702CC09D099D21812011E0130013E014051410445EC4602480749FF4AFF4BFF4D834E034F0150185401580489
:400240005A045B045D115F056040624064406540668068806A806C806E800D800F401E80458047014D044F4155805D045E805F017F02C290D090D210D6D0DE10E040EC1031
:40028000B001E880EC103388348037023D403F08CCF0CEA00740568083408D408F049540A78CB480B702C020D440E4801220A620A788AA80B620C410EA806B808380A7808C
:4002C000AF08DC20E280EE4033207C20CC08DE0133208F209C20A720CC08E00245089C20D0019C20A5082510A780C8201F80A780B510C680A508B020E801B508EC08000E61
:400300000214080C0C020E0200FF10220288880008000100007F7F00000080000001010000002C0000000000000080005F0018010000000000000000000000000000000085
:40034000000000000000000000000000000000000000000000000000000000000000000000000000000000000000000000000000000000000000000000000000000000007D
:40038000000000000000000000000000000000000000000000000000000000000000000000000000000000000000000000000000000000000000000000000000000000003D
:4003C00000000000000000000000000000000000000000000000000000000000000000000000000000000000000000000000000000000000000000000000000000000000FD
:4004000000000000000000000000000000000000000000000000000000000000000000000000000000000000000000000000000000000000000000000000000000000000BC
:0200000490006A
:0400000000004005B7
:0200000490105A
:04000000BC90ACAF55
:0200000490303A
:02000000C3C972
:0200000490402A
:4000000000000000000000000000000000000000000000000000000000000000000000000000000000000000000000000000000000000000000000000000000000000000C0
:400040000000000000000000000000000000000000000000000000000000000000000000000000000000000000000000000000000000000000000000000000000000000080
:400080000000000000000000000000000000000000000000000000000000000000000000000000000000000000000000000000000000000000000000000000000000000040
:4000C0000000000000000000000000000000000000000000000000000000000000000000000000000000000000000000000000000000000000000000000000000000000000
:0200000490501A
:0C00000000012E16106900012E41D432C0
:00000001FF